:060000000A128A11142906
:10000800F100030EF0000B1810200B191620700ECB
:100018008300F10E710E0900061C850A861C8503F3
:100028000B1008003D3081000B118901211821288F
:100038001D28260887000914252828088700891400
:0800480025280130A106080083
:100200008A010A1482073F3406345B344F34663463
:100210006D347D3407347F346F3477347C34393433
:100220005E3479347134080057217D2184213221D4
:10023000031383120508AF00A00093213D21432141
:1002400022211A294A212E08002188004E214A2104
:100250002D080021880051214A212C080021880006
:1002600054210800031383161614961403138312E3
:1002700006080B108B178B15080020080F39A200F9
:10028000200E0F39A40022080021A6002408002116
:10029000A800080086120613861308008616AF21F0
:1002A00008000617AF2108008617AF2108000317C2
:1002B0008316880189010313831605108510051123
:1002C0008511051285120513851308108810081171
:1002D00088110812881208138813061486148612CF
:1002E00006138613870109108910031383128701EF
:1002F00085018901860188010800031383160F1701
:100300008F160F120F140800031383168112811128
:10031000011581140114031383123D3081000B1168
:100320008B160B110800AE016430A029AD016430BA
:10033000AF070A30A529AC010A30AF070130AA295E
:10034000AF02031C9629AE0AA029AF02031C9B2909
:10035000AD0AA529AF02031C0800AC0AAA29FA308D
:10036000AA000D30AB00AA0BB329AB0BB3290000D8
:02037000080083
:04400E00C430FF3F7C
:00000001FF
