:1002000083160317880189010313831608108810C9
:100210000811881106108610061186110710871024
:100220000711871185100515851509148914031305
:1002300083128310850186018701880125212921E8
:1002400039213D214D2159211E29091C08002D214C
:100250000800891C08003121080009182D293521C2
:1002600008008918312937210800860A080086030A
:100270000800051D080041210800851D08004521D2
:1002800008000519412949210800851945294B21F4
:100290000800880A080088030800091D0800512189
:1002A0000800091951295521080006080807870088
:0C02B0000800831C08008514870108006A
:04400E00C430FF3F7C
:02420000002993
:00000001FF
