:060000000A128A1100291A
:1002000083160317880189010313831608108810C9
:100210000811881106108610061186110612861222
:10022000061386130710871007118711051005158F
:10023000851509148914031383128501860187012A
:1002400088010510800180012B212F213F214321AE
:1002500053215F212429091C080033210800891C2F
:10026000080037210800091833293B2108008918A4
:1002700037293D210800860A080086030800051D6D
:10028000080047210800851D08004B2108000519BA
:1002900047294F21080085194B2951210800880A58
:1002A000080088030800091D0800572108000919E3
:1002B00057295B2108000608080787000800831CEF
:1002C00008000514870108006430A1006421A10B17
:0E02D00066290800FA30A000A00B6C29080077
:04400E00C430FF3F7C
:00000001FF
