:060000000A128A1100291A
:1002000083160317880189010313831608108810C9
:100210000811881106108610061186110612861222
:10022000061386130710871007118711051005158F
:10023000851509148914031383128501860187012A
:100240008801051029212D213D21412151215D21C8
:100250002229091C080031210800891C08003521C9
:1002600008000918312939210800891835293B214E
:100270000800860A080086030800051D08004521BD
:100280000800851D080049210800051945294D2150
:100290000800851949294F210800880A08008803A9
:1002A0000800091D08005521080009195529592180
:1002B00008000608080787000800831C08000514CA
:1002C000870108006430A1006221A10B64290800A5
:0A02D000FA30A000A00B6A29080014
:04400E00C430FF3F7C
:00000001FF
