:060000000A128A1100291A
:1002000083160317880189010313831606108610CD
:100210000611861106128612061386130710871020
:100220000711871107128712071387130910051486
:10023000851403138312860187010910602155215B
:10024000272134210B1D22296721860A1E29051C1E
:1002500008002B21080005182B292F210800800AEF
:100260000008412187000800851C0800382108008B
:10027000851838293C2108008003000841218700A7
:1002800008008A010A1482070034083404340C344C
:1002900002340A3406340E340134093405340D3482
:1002A00003340B3407340F34080003138316811210
:1002B00081110115811401100313831267210800B5
:1002C000031383160F128F120F130F140800E2305E
:1002D00081000B1108006430A1006B21A10B6D2976
:0C02E0000800FA30A000A00B73290800F1
:04400E00C430FF3F7C
:00000001FF
