:020022000029B3
:1002000083160317880189010313831606108610CD
:1002100006118611071087100711871109100514A0
:1002200085140313831286018701091066215B215F
:10023000502122212F210B1D1B296221860A6621B4
:100240006B211629051C08002621080005182629FF
:100250002A210800800A00083C2187000800851C2C
:10026000080033210800851833293721080080034E
:1002700000083C21870008008A010A148207003424
:10028000083404340C3402340A3406340E34013495
:10029000093405340D3403340B3407340F340800AB
:1002A00003138316811281110115811401100313A8
:1002B000831262210800031383160F128F120F138B
:1002C0000F140800E23081000B1108000608070631
:1002D0000319091408000918091008006430A10066
:1002E0006E21A10B70290800FA30A000A00B76291E
:0202F000080004
:04400E00C430FF3F7C
:00000001FF
