:060000000A128A1100291A
:1002000083160317880189010313831606108610CD
:10021000061186110612861208108810081188111E
:10022000061486148601880147213C211C210B1DE0
:1002300017294E21860A17292A2187000800051C44
:100240000800232108000518232927210800800A17
:1002500000082A21820000340134023403340434BB
:10026000053406340734083409340A340B340C34AA
:100270000D340E340F3408000313831681128111DC
:10028000011581140110031383124E21080003137A
:1002900083160F128F120F130F140800E230810023
:1002A0000B1108006430A1005221A10B5429080051
:0A02B000FA30A000A00B5A29080044
:04400E00C430FF3F7C
:00000001FF
