:020000040000FA
:060000000A128A11122809
:10000800FE00030EF1000408F2000A08F300831250
:1000180003137F08F4000A128A111C280A128A1195
:100028001528F501F601F70183010A128A11C02883
:10003800831603130C1E2128222855288312031324
:100048000C1E272828285528770803192C282D281E
:1000580037287508073E84000A128A118F200A1271
:100068008A11990040287508013E84000A128A11F5
:100078008F200A128A1199000130F0007008F507E4
:1000880005307506031D49284A285528770803199D
:100098004E285028013051280030F0007008F70031
:1000A800F50183128C1E59285A285E281A08F00078
:1000B8007008F8007408FF0073088A00720884004A
:1000C800710E8300FE0E7E0E09000330831603179F
:1000D8008800890180308316031387008312031375
:1000E80087010A128A11B1200A128A110A128A118A
:1000F800CA200A128A110A128A11A0200A128A1129
:100108000A128A11D0200A128A118B178316031338
:100118000C130C17080000308A000408840A8207B0
:1001280000346134643469346F34733400346834AF
:100138006F346C3461340034831603139A01193018
:1001480099001815181283120313981783160313AE
:1001580018138312031318160800831603139A0141
:10016800193099001815181283120313981783165B
:1001780003131813981608000A128A1169200A1224
:100188008A11F801C5280A128A1112288B170B1731
:10019800831603130C1608008B170B17831603130B
:0401A8008C160800A9
:04400E00D420FF3F7C
:00000001FF
