:060000000A128A110E290C
:10000800F100030EF0008C1819200C1812200B199F
:100018002420700E8300F10E710E090032308F001B
:100028002C308E000C10850A080091018C100818DD
:10003800081009108910902108140914891408005F
:10004800F03081000B11890123182F282B2828084C
:100058008700091433282A088700891433280130B7
:04006800A3060800E3
:100200008A010A1482073F3406345B344F34663463
:100210006D347D3407347F346F3408002421352158
:100220006E213C214A215C21031383121A297E216D
:10023000672116290508A700643A03192021172908
:1002400000308500A700080003138316870185018D
:10025000880189010317831688018901031383121A
:1002600085018801890187010800031383160F1394
:100270008F160F120F14080003138312101390121D
:1002800010169011901010140B308F00EE308E006D
:100290000C100800031383121217921612169215EF
:1002A000121592141214031383168C309200031348
:1002B000831291018C100800031383160C148C1404
:1002C000031383128B170B170C108C1008002508D2
:1002D0000021A80024080021AA00080003138316A7
:1002E000011281128111011581140114031383126B
:1002F000F03081000B118B160B110800A5010A309C
:100300008629A4010A30A70701308B29A702031C04
:100310008129A50A8629A702031C0800A40A8B29A3
:100320004630A2009621A20B922908002830A10095
:06033000A10B9829080052
:04400E00C430FF3F7C
:00000001FF
