:060000000A128A110E290C
:10000800F100030EF0008C1824200C1812200B1994
:100018002720700E8300F10E710E0900FE308F004C
:1000280042308E000C100910891023183528312809
:100038000800AC01AD0A2D08033A0319AD01080008
:1000480091018C100800FF3081000B11850AAC0A61
:100058002C081F3A03191D200800280887000914D6
:1000680039282A088700891439280130A30608008E
:100200008A010A1482073F3406345B344F34663463
:100210006D347D3407347F346F3408006F218221C0
:10022000BB2189219721A921031383121F210508CE
:10023000A7001F3A03196B21CB21B42116292321D2
:100240003B21532108002D08003A031928210800FA
:1002500008108810081588150812881208178813C6
:1002600009112C081C3A03193621080008161E3AF9
:100270000319081208002D08013A0319402108004B
:100280000814881008118811081288160817881396
:1002900009112C081C3A03194E21080088171E3A30
:1002A0000319881308002D08023A03195821080081
:1002B000081488100811881508128812081388136A
:1002C00009152C081C3A03196621080088141E3AE7
:1002D00003198810080000308500A70008000313E8
:1002E000831687018501880189018601031783161A
:1002F000880189010313831285018801890187011F
:1003000086010800031383160F138F160F120F14A4
:1003100008000313831210139016101690119010FA
:100320001014FE308F0042308E000C1008000313B2
:100330008312121792161216921512159214121495
:10034000031383168C3092000313831291018C10D7
:100350000800031383160C148C14031383128B17D9
:100360000B170C108C10080025080021A800240889
:100370000021AA00080003138316011281128111C3
:1003800001158114011403138312FF3081000B1136
:100390008B160B110800A5010A30D329A4010A30DD
:1003A000A7070130D829A702031CCE29A50AD32903
:1003B000A702031C0800A40AD8294630A200E321A2
:1003C000A20BDF2908002830A100A10BE5290800B5
:04400E00C430FF3F7C
:00000001FF
