:020000040000FA
:060000000A128A110E280D
:10000800FE00030E83120313A4000A08A5000A12B7
:100018008A116B2F0A128A1111280A128A11EB27EA
:100028000A128A11E8000A128A11EC270A128A11A8
:10003800E90083160313AB01AC01AD01AE01AF01BA
:10004800B001B101B201B301B40183010A128A15EA
:10005800122F8312031332088039B7003708BC0007
:100068003208B7003707B8003808C200B11F3D286A
:100078003E283F284214420803194328442853289D
:10008800420A031D4828492851280030B200003090
:10009800B1000030B0000030AF00B1175B2800306D
:1000A800B2000030B1000030B0000030AF003608B8
:1000B8008039B7003708BC063608B7003707B800DC
:1000C8003808C100B51F69286A286B2841144108FF
:1000D80003196F2870287F28410A031D7428752882
:1000E8007D280030B6000030B5000030B400003084
:1000F800B300B51787280030B6000030B5000030CF
:10010800B4000030B300410803198B288C289128CB
:100118004208031D902891289A280030B200003028
:10012800B1000030B0000030AF008D2B2F08B700B1
:100138003708A60035080A128A11C2270A128A113E
:10014800831203132708C8002608C7004708B7000A
:10015800B801B901BA013A08C0003908BF00380827
:10016800BE003708BD004808B700B801B901BA0198
:100178003A08C6003908C5003808C4003708C30063
:100188003008B7003708A60034080A128A11C227B7
:100198000A128A11831203132708C8002608C70009
:1001A8004708B700B801B901BA013708BD073808D0
:1001B80003110318013E0319E228BE073908031189
:1001C8000318013E0319E928BF073A080311031869
:1001D800013E0319F028C0074808B700B801B90163
:1001E800BA013708C307380803110318013E031979
:1001F800FE28C407390803110318013E031905290D
:10020800C5073A0803110318013E03190C29C6074C
:100218003108B7003708A60033080A128A11C22726
:100228000A128A11831203132708C8002608C70078
:100238004708B700B801B901BA013708BD0738083F
:1002480003110318013E03192A29BE0739080311AF
:100258000318013E03193129BF073A08031103188F
:10026800013E03193829C0074808B700B801B90189
:10027800BA013708C307380803110318013E0319E8
:100288004629C407390803110318013E03194D29EB
:10029800C5073A0803110318013E03195429C60774
:1002A8000830B7000310BD0DBE0DBF0DC00DB70B54
:1002B80056293008B7003708A60033080A128A11F1
:1002C800C2270A128A11831203132708C8002608B6
:1002D800C7004708B7004808B800B901BA0137088D
:1002E800BD07380803110318013E03197C29BE070E
:1002F800390803110318013E03198329BF073A0877
:1003080003110318013E03198A29C0072F08B700F3
:100318003708A60034080A128A11C2270A128A115D
:10032800831203132708C8002608C7004708B70028
:100338004808B800B901BA013708BD0738080311E1
:100348000318013E0319A929BE0739080311031828
:10035800013E0319B029BF073A0803110318013EEB
:100368000319B729C0070830B7000310BD0DBE0D2B
:10037800BF0DC00DB70BB9292F08B7003708A60065
:1003880033080A128A11C2270A128A118312031328
:100398002708C8002608C7004708B7004808B8005B
:1003A800B901BA013708BD07380803110318013E1F
:1003B8000319DF29BE07390803110318013E031981
:1003C800E629BF073A0803110318013E0319ED296E
:1003D800C0073008B7003708A60035080A128A1186
:1003E800C2270A128A11831203132708C800260895
:1003F800C7004708B7004808B800B901BA0137086C
:10040800C307380803110318013E03190C2AC4074F
:10041800390803110318013E0319132AC5073A08BE
:1004280003110318013E03191A2AC6073108B70039
:100438003708A60034080A128A11C2270A128A113C
:10044800831203132708C8002608C7004708B70007
:100458004808B800B901BA013708C30738080311BA
:100468000318013E0319392AC40739080311031870
:10047800013E0319402AC5073A0803110318013E33
:100488000319472AC6073108B7003708A6003508F8
:100498000A128A11C2270A128A1183120313270823
:1004A800C8002608C7004708B7004808B800B901BF
:1004B800BA0108300310B70DB80DB90DBA0DFF3EDB
:1004C800031D5E2A3708C307380803110318013EC5
:1004D80003196F2AC407390803110318013E0319C9
:1004E800762AC5073A0803110318013E03197D2A25
:1004F800C6073D08B7003E08B8003F08B9004008E5
:10050800BA0018300310BA0CB90CB80CB70CFF3E7F
:10051800031D862A3708C307380803110318013E4C
:100528000319972AC407390803110318013E031950
:100538009E2AC5073A0803110318013E0319A52A84
:10054800C6070830B7000310BD0DBE0DBF0DC00DA6
:10055800B70BA72A42084107B700B801B80D3708FA
:10056800823EC70038080318013EFF3EC800D92A5A
:100578000130B7000310C30DC40DC50DC60DB70B70
:10058800BE2AC01FC82AC92ACA2A43140130B70084
:100598000310BD0DBE0DBF0DC00DB70BCC2AFF302B
:1005A800C7070318C80AFF30C807C51FDC2ADD2A99
:1005B800BC2AC101C01FE12AE22AFE2AFF303D05FC
:1005C800B700FF303E05B800FF303F05B9007F3067
:1005D8004005BA003A083904380437040319F52AE3
:1005E800F62AF92AC101C10AFE2A431CFC2AFD2A5F
:1005F800FE2AF62A41080319022B032B342B01305B
:10060800C307003003180130C40700300318013055
:10061800C507003003180130C607461C142B152BDC
:10062800342B4308B7004408B8004508B900460809
:10063800BA000130BB003A0DBA0CB90CB80CB70CB3
:10064800BB0B1F2B3A08C6003908C5003808C40080
:100658003708C3000130C7070318C80A0030C807A5
:100668004808803AFF0080307F02031D3D2BFF3091
:100678004702031C402B412B4C2B7F308312031362
:10068800C6008030C5000030C4000030C300812B94
:10069800831203134808803AFF0080307F02031D4D
:1006A800572B0130470203185A2B5B2B672B00305E
:1006B80083120313C6000030C5000030C4000030A8
:1006C800C300BC01812B831203134708B700370806
:1006D800C200FF30C305FF30C4057F30C5050030B8
:1006E800C605421C782B792B7A2BC5174208B70010
:1006F8000310370CB8003808C6003C08B7003708A4
:10070800C6044608B2004508B1004408B0004308D2
:10071800AF0008008312031350088039D100510834
:10072800DA005008D1005107D2005208E100CF1F6B
:100738009E2B9F2BA02B611461080319A42BA52BBA
:10074800B52B610A031DA92BAA2BB22B0030D000B0
:100758000030CF000030CE000030CD00CF17D001E0
:10076800BD2B0030D0000030CF000030CE0000306C
:10077800CD004C088039D1005108DA064C08D10068
:100788005107D2005208E200CB1FCB2BCC2BCD2B2C
:10079800621462080319D12BD22BE22B620A031DC3
:1007A800D62BD72BDF2B0030CC000030CB0000300D
:1007B800CA000030C900CB17CC01EA2B0030CC00AE
:1007C8000030CB000030CA000030C9004C084B0490
:1007D8004A044904031DF12BF22B0B2C0030D000E6
:1007E8000030CF000030CE000030CD008030CF0484
:1007F8007F30D0045A08D1005108D0045008CC00EA
:100808004F08CB004E08CA004D08C9006A2D610880
:10081800031D0F2C102C192C0030CC000030CB00FD
:100828000030CA000030C9006A2D6108D100D20129
:100838005208D40062085102D300031CD4035308A1
:100848007F3EDB0054080318013E003EDC005008E0
:10085800D9004F08D8004E08D7004D08D600003000
:10086800D0000030CF000030CE000030CD00003086
:10087800E0000030DF000030DE000030DD00E20183
:100888008F2C62080319492C4A2C6A2C0130D1009C
:100898000310D60DD70DD80DD90DD10B4C2C013026
:1008A800D1000310CD0DCE0DCF0DD00DD10B552C91
:1008B800E01F5F2C602C612C4D140130D100031017
:1008C800DD0DDE0DDF0DE00DD10B632C4C08590258
:1008D800031D782C4B085802031D782C4A08570230
:1008E800031D782C49085602031C7B2C7C2C8B2C6E
:1008F80060174908D6024A08031C4A0FD7024B085A
:10090800031C4B0FD8024C08031C4C0FD9020130B2
:10091800D1005108E2071A306202031C942C952C6E
:10092800452C590858045704560403199C2C9D2C2F
:10093800BC2C5D14BC2C0130D1000310CD0DCE0DA4
:10094800CF0DD00DD10BA12CE01FAB2CAC2CAD2CB6
:100958004D140130D1000310DD0DDE0DDF0DE00D6B
:10096800D10BAF2CFF30DB070318DC0AFF30DC07A4
:10097800CF1FBF2CC02C9F2CE201E01FC42CC52C1C
:10098800E12CFF305D05D100FF305E05D200FF305D
:100998005F05D3007F306005D40054085304520427
:1009A80051040319D82CD92CDC2CE201E20AE12CE1
:1009B8004D1CDF2CE02CE12CD92C62080319E52C06
:1009C800E62C172D0130CD07003003180130CE0773
:1009D800003003180130CF07003003180130D0076A
:1009E800501CF72CF82C172D4D08D1004E08D200BA
:1009F8004F08D3005008D4000130D500540DD40C52
:100A0800D30CD20CD10CD50B022D5408D0005308AE
:100A1800CF005208CE005108CD000130DB07031883
:100A2800DC0A0030DC075C08803AFF0080307F0277
:100A3800031D202DFF305B02031C232D242D322D96
:100A4800FF3083120313DB000030DC000030D000DD
:100A58000030CF000030CE000030CD0083120313E9
:100A68005C08803AFF0080307F02031D3D2D013075
:100A78005B020318402D412D4E2D83120313DB0119
:100A8800DC010030D0000030CF000030CE00003054
:100A9800CD00DA01831203135B08D1005108E1008D
:100AA800611C572D582D5A2DCF175E2D7F30D10040
:100AB8005108CF056108D1000310510CD20052082B
:100AC800D0005A08D1005108D004022C080083161F
:100AD80003132708A900A90DA90D831203131F08E2
:100AE800831603132906C3392906831203139F00AB
:100AF8009F187F2D802D2C2E033083160313270675
:100B08002804031D882D892D2C2E2E0883120313EB
:100B1800B600831603132D0883120313B50083163A
:100B280003132C0883120313B400831603132B0832
:100B380083120313B3004030B200A030B10000307C
:100B4800B0000030AF000A128A112D200A128A1153
:100B5800831203133208D0003108CF003008CE00CA
:100B68002F08CD004430CC007F30CB00C030CA0005
:100B78000030C9000A128A118E230A128A118312C0
:100B880003134C08E6004B08E5004A08E40049084E
:100B9800E3000A128A1562270A128A1183120313C4
:100BA800630C031C091003180914831603132E0879
:100BB80083120313B600831603132D08831203133D
:100BC800B500831603132C0883120313B40083168D
:100BD80003132B0883120313B3004030B200A03074
:100BE800B1000030B0000030AF000A128A112D2089
:100BF8000A128A11831203133208D0003108CF0079
:100C08003008CE002F08CD004430CC007F30CB0018
:100C1800C030CA000030C9000A128A118E230A1295
:100C28008A11831203134C08E6004B08E5004A08B2
:100C3800E4004908E3000A128A1562270A128A1199
:100C480083120313630C031C8910031889149F145F
:100C580083129F18302E312E452E0230831603132F
:100C680027062804031D392E3A2E452E2F088312F5
:100C780003138800831603132F08831203138600B7
:100C88009F1483129F18492E4A2E7A2E8316031317
:100C980027032804031D512E522E7A2E3408AA0049
:100CA8003308A9000310AA0CA90C0310AA0CA90C5C
:100CB8002908F83E831203139500831603131E08B0
:100CC800A90007300310A90CFF3E031D662E290852
:100CD800AA00AA0E831203131708831603132A0601
:100CE800EF392A068312031397009F1483129F1863
:100CF8007E2E7F2EB02E8316031327082804031D8B
:100D0800862E872EB02E3208AA003108A9000310BB
:100D1800AA0CA90C0310AA0CA90C2908F83E8312E6
:100D280003139B00831603131E08A9000730031042
:100D3800A90CFF3E031D9B2E2908AA00AA0EAA0D86
:100D4800831203131D08831603132A06DF392A06A4
:100D5800831203139D009F140800F80078080319F4
:100D6800B62EB72ECB2EF31FBA2EBB2ECB2E700964
:100D7800FA007109FB007209FC007309FD00FA0A08
:100D88000319FB0A0319FC0A0319FD0AD32E730879
:100D9800FD007208FC007108FB007008FA00730877
:100DA800720471047004031DDA2EDB2EE42E003069
:100DB800F3000030F2000030F1000030F0006A2F3C
:100DC8009630F4007408F900F62E0130F400740827
:100DD800F90701300310FD0CFC0CFB0CFA0CFF3E6C
:100DE800031DEE2EFE307D05031DFB2EFC2EE92E85
:100DF800182F0130F4007408F9070130FA070030A1
:100E080003180130FB07003003180130FC070030DD
:100E180003180130FD0701300310FD0CFC0CFB0C1E
:100E2800FA0CFF3E031D102FFF307D05031D1D2FFB
:100E38001E2FFD2E2A2F0130F9020130F400031075
:100E4800FA0DFB0DFC0DFD0DF40B232FFC1B2D2FB4
:100E58002E2F342F023079020318332F342F1F2FEF
:100E68007918372F382F402FFF30FA05FF30FB0550
:100E78007F30FC05FF30FD050310F90C7908F400FC
:100E8800F501F601F70118300310F40DF50DF60D14
:100E9800F70DFF3E031D482F7408FA047508FB047C
:100EA8007608FC047708FD04780803195C2F5D2F89
:100EB800622FF31F602F612F622FFD177D08F3004B
:100EC8007C08F2007B08F1007A08F00008000C1F8B
:100ED8006E2F6F2FBA2F0C131E08A000A101200837
:100EE80083160313B3008312031321088316031315
:100EF800B400831203131E08A000A1012008831662
:100F08000313B10083120313210883160313B200DD
:100F1800831203131E08A000A101200883160313DF
:100F2800AF0083120313210883160313B000831242
:100F380003131E08A000A101A201A3012308F300C6
:100F48002208F2002108F1002008F00000300A12FF
:100F58008A11B1260A128A11730883160313AE0088
:100F68007208AD007108AC007008AB008312250848
:100F78008A00240E8300FE0E7E0E090083120313DE
:100F8800AE00AA01AB012608A800A9012808AC00F8
:100F98002908AD002E1CD12FD22FD82F2C08AA0734
:100FA8000318AB0A2D08AB0701300310AC0DAD0DCB
:100FB800FF3E031DD92F0310AE0C2E08031DE52F8D
:100FC800E62FCE2F2B08A7002A08A6000800033416
:020FD8000034E3
:101D88000F3083160317880089010F308316031359
:101D98008500860187018801890183120313850163
:101DA8008601880187018901831603130F178F1293
:101DB8000F120F149F131F129F12831203131F1762
:101DC8009F131F148316031307158714A530920059
:101DD8003F308312031397051708F0390C38970022
:101DE8001D08F0390C389D000F3095000F309B000E
:101DF800CF3097058C100330920412158C1C052FD8
:101E0800062F022F8C1083160313071187108B17C8
:101E18000B170C17831203130C1308000A128A15E8
:101E2800C4260A128A15003083160313A700A800D7
:101E38000A128A116B250A128A155230831203136B
:101E4800E700E70B252F0000013083160313A700D6
:101E58000030A8000A128A116B250A128A1552301E
:101E680083120313E700E70B372F000002308316B5
:101E78000313A7000030A8000A128A116B250A1262
:101E88008A15523083120313E700E70B492F00002D
:101E9800033083160313A7000030A8000A128A1122
:101EA8006B250A128A15523083120313E700E70BD9
:101EB8005B2F0000172F0A128A110E2803108312B5
:101EC8000313650D660D83160313A0002008A600F2
:101ED8002608031D702F712F7C2F003083120313E7
:101EE800E6000030E5000030E4000030E300FF2F9A
:101EF80083120313630883160313A00083120313CA
:101F0800640883160313A10083120313650883165C
:101F18000313A20083120313660883160313A30096
:101F28001F300310A30CA20CA10CA00CFF3E031D34
:101F3800952F2008A4002408A50083120313E51791
:101F4800FF30E305FF30E405FF30E5050030E60526
:101F5800963083160313A602A61FB32FB42FD22FD1
:101F68002608803A973E0318BA2FBB2FBC2F712F33
:101F78000130031083120313E60CE50CE40CE30CA8
:101F8800FF3E031DBD2F013083160313A000200858
:101F9800A607031DD02FD12FBC2FED2F20302602EE
:101FA800031CD72FD82FE82F712F0130A000031062
:101FB80083120313E30DE40DE50DE60D83160313F9
:101FC800A00BDB2F0130A6022608031DEC2FED2FF6
:101FD800D92F25080319F12FF22FFF2F831203138E
:101FE800E309E409E509E609E30A0319E40A031920
:081FF800E50A0319E60A0800DE
:04400E00D420FF3F7C
:00000001FF
