:020000040000FA
:060000000A128A110C280F
:10000800FE00030EF2000A08F3000A128A11892979
:100018000A128A110F2883133930FD000130FE00BF
:10002800E530FF002F3084000A128A11D6210A1207
:100038008A11B901BA01BB01BC01BD01BE01BF01F2
:10004800C001F801F90183010A128A115E2983129D
:100058000313AC002C08AA00AA0DAA0D1F082A0633
:10006800C3392A069F009F183A283B28D8282C080D
:10007800031D3F284028D8280A30A4000030A500D6
:100088006430F4000030F5004008F7003F08F6003F
:100098000A128A11DC200A128A11750883120313C6
:1000A800A7007408A6000A128A1122210A128A11CE
:1000B800831203132508C0002408BF000A30A400D7
:1000C8000030A5000A30F4000030F5003E08F700C3
:1000D8003D08F6000A128A11DC200A128A117508F6
:1000E80083120313A7007408A6000A128A1122219A
:1000F8000A128A11831203132508BE002408BD00C2
:100108000A30A4000030A5003C08A7003B08A60060
:100118000A128A1122210A128A118312031325084E
:10012800BC002408BB003F082F3E8400831300084E
:10013800870009150F3083120313AB009A30AA0009
:10014800AA0BA428AB0BA4280000831203130911DF
:100158003D082F3E840083130008870009140F30E0
:1001680083120313AB009A30AA00AA0BB928AB0B71
:10017800B92800008312031309103B082F3E84009E
:1001880083130008870089140F3083120313AB0010
:100198009A30AA00AA0BCE28AB0BCE2800008312F7
:1001A800031389109F14DB28390888009F1408005E
:1001B80083120313A201A301740875040319E52827
:1001C800E6281D29A101A10AF42801300310F40D25
:1001D800F50DFF3E031DEA280130A0002008A10705
:1001E800F51FF728F828E92801300310A20DA30D00
:1001F800FF3E031DF92875087702031D05297408B9
:100208007602031C0829092910297408F6027508C2
:10021800031CF703F702221401300310F50CF40C49
:10022800FF3E031D11290130A102031D1C291D29B0
:10023800F8282308F5002208F400080083120313A5
:1002480024082504031929292A295929A901A90AB1
:10025800382901300310A40DA50DFF3E031D2E29DA
:100268000130A8002808A907A51F3B293C292D29EA
:1002780025082702031D422924082602031C4529B4
:1002880046294C292408A6022508031CA703A7020F
:1002980001300310A50CA40CFF3E031D4D290130AD
:1002A800A902031D582959293C292708A500260811
:1002B800A40008000A128A11B3210A128A11003018
:1002C8000A128A112B200A128A110330831203138F
:1002D800AE00EA30AD00AD0B6F29AE0B6F29000000
:1002E80001300A128A112B200A128A110330831254
:1002F8000313AE00EA30AD00AD0B8029AE0B8029A8
:10030800000063290A128A110C28831203130C1F98
:100318008E298F29AC290C131E08F000F1017008F2
:10032800BF007108C0001E08F000F1017008BD0090
:100338007108BE001E08F000F1017008BB007108CA
:10034800BC001E08F000F1017008B9007108BA007D
:1003580073088A00720E8300FE0E7E0E0900831653
:10036800031788018901033083160313850086016A
:100378008701880189018312031388018701890194
:100388008B170B170B161F179F131F1483160313B6
:100398009F130C17831203130C1308007E088A009E
:1003A8007F0882000A128A11D2210A128A1180005B
:1003B800840A04087D0603190034FF0A0319FE0A9B
:1003C800D6293F3406345B344F3466346D347D347B
:0603D80007347F346F348E
:04400E00D420FF3F7C
:00000001FF
