:060000000A128A110E290C
:10000800F100030EF0000B180E20700E8300F10EA5
:10001800710E090025088A010339820715281B2853
:10002800222806192928A50A2408A3002928061C1D
:10003800A30A861CA303061DA50A2928861CA50158
:0E004800061C29282308A400A5010B1008009F
:100200008A010A1482073F3406345B344F34663463
:100210006D347D3407347F346F3408005E217421DF
:100220005221432103138312A5018B1325088A0150
:100230000A14033982072B2935293A29A42186215A
:1002400008002A08A900213A031927211E29003095
:10025000AA00A90008008B170714071187100B1DAF
:100260002F293F21AA0A212115298B17871407114D
:10027000071015298B170715071087101529240853
:1002800081000B11080003138316811281110115DF
:1002900081140114031383120030A4002408810088
:1002A0000B11080003138316161516149614031366
:1002B000831206080B108B178B1508000317831683
:1002C000880189010313831685018701880189014B
:1002D000073086008113FF309500031383128501D8
:1002E0008701880189010800031383160F178F12F5
:1002F0000F120F1408002330A1008121A10B7D29CA
:1003000008008730A000A00B83290800912127084E
:10031000002188009A2191212608002188009F2130
:100320000800891009118711071287120713861117
:10033000061208008914871587167B210800091505
:10034000071607177B210800A7010A30AC29A60170
:100350000A30A9070130B129A902031CA729A70A5D
:0C036000AC29A902031C0800A60AB12960
:04400E00C430FF3F7C
:00000001FF
