:060000000A128A110E290C
:10000800F100030EF0000B18B6200C1823200B1972
:100018006C20700E8300F10E710E0900BE01BF0A3C
:100028003F08033A0319BF01C20A4208033A0319F9
:10003800C201C30A4308033A0319C3010800FE308A
:100048008F0042308E000C1042204308003A0319FA
:100058004B204208003A031963284308013A031960
:1000680050204208013A031966284308023A031946
:1000780055204208023A0319692863280910891093
:10008800051185110510851006128612080045080D
:10009800013A03195A2808004508023A03195D284D
:1000A80008004508033A0319602808003B187F2810
:1000B80083283C18992895283D18AF28AB2838186C
:1000C8007828742839188E288A283A18A428A0284D
:1000D8009221AA0ABE0A3E08410603191220080006
:1000E8002C08870009147C282E08870089147C288E
:1000F8000130B80608002C088700061687282E0845
:100108008700861687280130BB060800300887005C
:100118000514922832088700851492280130B90600
:1001280008003008870006169D28320887008616C2
:100138009D280130BC060800340887000515A8284A
:10014800360887008515A8280130BA060800340843
:1001580087000616B328360887008616B3280130AC
:10016800BD06080025088A0103398207BD28C4286E
:10017800CF280619F428A50A4008C1002408A300BE
:10018800861DC40A061CE720861CF120061DA50A48
:10019800061FDD20F428861CA501061CF428440847
:1001A800C5004008C1002308A400A501AA01BE019A
:1001B800F42819221922FF30870019221922A501D3
:1001C800AA01BE010800A30AC00A4008153A03198B
:1001D800EE2008000A30C0000800A303C00308008E
:0401E8000B100800F0
:100200008A010A1482073F3406345B344F34663463
:100210006D347D3407347F346F340800CF21ED21F5
:10022000C1219621A821B62103138312A5012821FB
:100230002A08A900410603197F210722F4218B1304
:1002400025088A010A1403398207832988298D2900
:100250002C214821642108003F08003A031931216C
:100260000800081088100815881508128812081749
:10027000881309113E08143A03193F210800881118
:1002800008164106031945210800081288110800C4
:100290003F08013A03194D2108000814881008117D
:1002A0008811081288160817881309113E08143A95
:1002B00003195B21080008138817410603196121FF
:1002C00008008813081308003F08023A031969213F
:1002D00008000814881008118815081288120813DD
:1002E000881309153E08143A0319772108000810ED
:1002F0008814410603197D21080088100810003079
:10030000AA00A90008008B170516051385121729E6
:100310008B1785160513051217298B17051705125C
:1003200085121729240881000B1108000313831676
:10033000011281128111011581140110031383121E
:100340009630A400240881000B118B160B110800B5
:10035000031383121013901610169011901010149E
:10036000FE308F0042308E000C10080003138316FD
:100370000C148C14031383128B170B170C108C1096
:1003800008000313831616151614961496151617DF
:100390000313831206080B108B178B150800031725
:1003A000831688018901031383168501870188015B
:1003B00089014F3086008113FF30950003138312AB
:1003C000850187018801890186011530C1000B3044
:1003D000C0000613861387170800031383160F1334
:1003E0008F160F120F14080027080021AC002608F2
:1003F0000021AE0027080021B00026080021B2002D
:1004000027080021B40026080021B6000800A70133
:100410000A300F2AA6010A30A9070130142AA902BE
:10042000031C0A2AA70A0F2AA902031C0800A60A0D
:10043000142A4630A1001F22A10B1B2A08003230CB
:08044000A000A00B212A080016
:04400E00C430FF3F7C
:00000001FF
