:020000040000FA
:060000000A128A110C280F
:10000800FE00030EF0000A08F1000A128A11032C00
:100018000A128A110F28F901FA01FB01FC01FD01FE
:1000280083010A128A11C32B3030831203131A0674
:10003800031D1F28202832280D300A128A11142483
:100048000A128A110A128A11C5210A128A110A1281
:100058008A11F8200A128A11F901FA013130831243
:1000680003131A06031D39283A2849280D300A12A5
:100078008A1114240A128A110A128A11E4230A1214
:100088008A113030831203139A0032301A06031D86
:100098004E284F287B280230F9000030FA000D3036
:1000A8000A128A1114240A128A110A128A11482380
:1000B8000A128A110D300A128A1114240A128A119E
:1000C8000630F5001330F400AD30F300F30B6A2866
:1000D800F40B6A28F50B6A287128831203138C1A0B
:1000E800762877287B281A08850030309A00333024
:1000F8001A06031D80288128AD280330F900003036
:10010800FA000D300A128A1114240A128A110A12EE
:100118008A1148230A128A110D300A128A111424EE
:100128000A128A110630F5001330F400AD30F300DE
:10013800F30B9C28F40B9C28F50B9C28A32883120E
:1001480003138C1AA828A928AD281A08860030306D
:100158009A0034301A06031DB228B328C2280D307D
:100168000A128A1114240A128A110A128A116822A0
:100178000A128A113030831203139A0031301A069A
:100188000319C728C828F72832301A060319CD28BA
:10019800CE28F72833301A060319D328D428F7288D
:1001A80030301A060319D928DA28F72834301A0605
:1001B8000319DF28E028F72879087A04031DE528C1
:1001C800E628F7280D300A128A1114240A128A1117
:1001D8000A128A11ED220A128A11F901FA01303045
:1001E800831203139A00080031300A128A1114246A
:1001F8000A128A1129300A128A1114240A128A1141
:1002080020300A128A1114240A128A1143300A1261
:100218008A1114240A128A1161300A128A111424CC
:100228000A128A1172300A128A1114240A128A11C7
:1002380061300A128A1114240A128A1163300A12D0
:100248008A1114240A128A1174300A128A11142489
:100258000A128A1165300A128A1114240A128A11A4
:1002680072300A128A1114240A128A1165300A128D
:100278008A1114240A128A1173300A128A1114245A
:100288000A128A110D300A128A1114240A128A11CC
:1002980032300A128A1114240A128A1129300A12D9
:1002A8008A1114240A128A1120300A128A1114247D
:1002B8000A128A1150300A128A1114240A128A1159
:1002C8006F300A128A1114240A128A1172300A1223
:1002D8008A1114240A128A1174300A128A111424F9
:1002E8000A128A1120300A128A1114240A128A1159
:1002F80041300A128A1114240A128A110D300A1286
:100308008A1114240A128A1133300A128A11142409
:100318000A128A1129300A128A1114240A128A111F
:1003280020300A128A1114240A128A1150300A1233
:100338008A1114240A128A116F300A128A1114249D
:100348000A128A1172300A128A1114240A128A11A6
:1003580074300A128A1114240A128A1120300A12DF
:100368008A1114240A128A1142300A128A1114249A
:100378000A128A110D300A128A1114240A128A11DB
:10038800080051300A128A1114240A128A11753091
:100398000A128A1114240A128A1165300A128A1163
:1003A80014240A128A1120300A128A1114240A12FB
:1003B8008A1161300A128A1114240A128A116330D0
:1003C8000A128A1114240A128A1163300A128A1135
:1003D80014240A128A1169300A128A1114240A1282
:1003E8008A116F300A128A1114240A128A116E3087
:1003F8000A128A1114240A128A1120300A128A1148
:1004080014240A128A1164300A128A1114240A1256
:100418008A1165300A128A1114240A128A1173305B
:100428000A128A1114240A128A1165300A128A11D2
:1004380014240A128A1161300A128A1114240A1229
:100448008A1120300A128A1114240A128A1165307E
:100458000A128A1114240A128A116A300A128A119D
:1004680014240A128A1165300A128A1114240A12F5
:100478008A1163300A128A1114240A128A117530FB
:100488000A128A1114240A128A1174300A128A1163
:1004980014240A128A1161300A128A1114240A12C9
:1004A8008A1172300A128A1114240A128A113F30F2
:1004B8000A128A1114240A128A110D300A128A119A
:1004C80014240A128A11080043300A128A111424CB
:1004D8000A128A1161300A128A1114240A128A1126
:1004E80072300A128A1114240A128A1161300A120F
:1004F8008A1114240A128A1163300A128A111424E8
:100508000A128A1174300A128A1114240A128A11E2
:1005180065300A128A1114240A128A1172300A12DA
:100528008A1114240A128A1120300A128A111424FA
:100538000A128A113A300A128A1114240A128A11EC
:1005480020300A128A1114240A128A1130300A1231
:100558008A1114240A128A110D300A128A111424DD
:100568000A128A1148300A128A1114240A128A11AE
:1005780065300A128A1114240A128A1178300A1274
:100588008A1114240A128A1120300A128A1114249A
:100598000A128A113A300A128A1114240A128A118C
:1005A80020300A128A1114240A128A1133300A12CE
:1005B8008A1114240A128A1130300A128A1114245A
:1005C8000A128A110D300A128A1114240A128A1189
:1005D800080044300A128A1114240A128A11613060
:1005E8000A128A1114240A128A1174300A128A1102
:1005F80014240A128A116F300A128A1114240A125A
:100608008A1120300A128A1114240A128A116930B8
:100618000A128A1114240A128A116E300A128A11D7
:1006280014240A128A1163300A128A1114240A1235
:100638008A116F300A128A1114240A128A11723030
:100648000A128A1114240A128A1172300A128A11A3
:1006580014240A128A1165300A128A1114240A1203
:100668008A1163300A128A1114240A128A1174300A
:100678000A128A1114240A128A116F300A128A1176
:1006880014240A128A11080049300A128A11142403
:100698000A128A116E300A128A1114240A128A1157
:1006A80067300A128A1114240A128A1172300A1247
:1006B8008A1114240A128A1165300A128A11142424
:1006C8000A128A1167300A128A1114240A128A112E
:1006D80065300A128A1114240A128A1120300A126B
:1006E8008A1114240A128A1164300A128A111424F5
:1006F8000A128A1161300A128A1114240A128A1104
:1007080074300A128A1114240A128A116F300A12DC
:100718008A1114240A128A11080083160317880103
:100728008901831203138801860185018316031347
:100738008501860188010F088F3940388F000F1412
:100748001812181583160317871519308316031303
:1007580099009A0183120313981718131816831611
:1007680003139816831203138C12831603138C1623
:100778000B178B173030831203139A0008000A12E4
:100788008A1191230A128A110630F8001330F700F3
:10079800AD30F600F60BCE2BF70BCE2BF80BCE2B8D
:1007A800D52B0A128A1118200A128A110D300A1242
:1007B8008A1114240A128A11C82B0A128A110C28C9
:1007C80068300A128A1114240A128A116F300A1228
:1007D8008A1114240A128A116C300A128A111424FC
:1007E8000A128A1161300A128A1114240A128A1113
:1007F8000D300A128A1114240A128A110800831271
:1008080003138C1E082C092C0D2C1A0888001A08B2
:10081800990071088A00700E8300FE0E7E0E090092
:10082800F20072088312031399000C1E1C2C1D2C55
:04083800192C08006F
:04400E00D420FF3F7C
:00000001FF
