:020000040000FA
:060000000A128A110C280F
:10000800FE00030EF2000A08F3000A128A11C02843
:100018000A128A110F28F901FA01FB01FC01830178
:100028000A128A1199280C3083160317880089014F
:100038000C3083160313850086018701831203138E
:100048008501860187017030831603138F040F140E
:100058009F131F121F12831203131F083F39803882
:100068009F001030F400F40B3728000083120313AC
:100078001F148316031307158714F93092003F30B5
:100088008312031397051708F0390C3897001D08D9
:10009800F0390C389D000F3095000F309B00CF30A1
:1000A80097058C100330920412158C1C5C285D286F
:1000B80059288C1083160313071187108312031312
:1000C8000C13831603130C170B178B170800F60075
:1000D8007608F400F40DF40D831203131F08740658
:1000E800C33974069F009F187A287B288D28023010
:1000F8007606031D802881288D287C08F5007B085A
:10010800F4000310F50CF40C7408803E95009F145D
:1001180098287A08F5007908F4000310F50CF40C17
:100128007408803E9B009F1408000A128A11172049
:100138000A128A1102300A128A116B200A128A11D5
:100148000330F8009730F700F70BA828F80BA82819
:10015800AD2803300A128A116B200A128A11033063
:10016800F8009730F700F70BB728F80BB728BC282A
:100178009E280A128A110C28831203130C1FC52803
:10018800C628D5281E08F000F1017008FB00710888
:10019800FC001E08F000F1017008F9007108FA006F
:1001A8000C1373088A00720E8300FE0E7E0E09007F
:04400E00D420FF3F7C
:00000001FF
