:020000040000FA
:060000000A128A110E280D
:10000800FE00030EF9000408FA000A08FB000A12B1
:100018008A117C290A128A11112883132A30FD00BB
:100028000130FE00AC30FF00203084000A128A1133
:100038009D210A128A11AA01AB01AC01AD01AE01E2
:10004800AF01F001F101F201F301F401F5018301BF
:100058000A128A112F280A128A1156210A128A11A5
:100068007508803AFF0080307F02031D3D280A3062
:100078007402031C402841284928F401F501013085
:10008800F2070318F30A0030F307F51F4C284D2830
:1000980057280930F4000030F500FF30F207031844
:1000A800F30AFF30F3077308803AFF0080307F02BD
:1000B800031D60280A307202031C632864286C2818
:1000C800F201F3010130F0070318F10A0030F107DB
:1000D800F31F6F2870287A280930F2000030F300E7
:1000E800FF30F0070318F10AFF30F1077108803A72
:1000F800FF0080307F02031D83280A307002031C32
:10010800862887288928F001F101F11F8C288D287D
:1001180091280930F0000030F1000A128A11DD2020
:100128000A128A110A128A119F200A128A11342887
:100138000A128A110E287508803AFF0080307F0263
:10014800031DA82806307402031CAB28AC28C0285D
:10015800053072067304031DB228B328C028023084
:1001680070067104031DB928BA28C028F401F501E6
:10017800F201F301F001F101F51FC328C428DC28BE
:1001880072087304031DC928CA28DC287008710482
:10019800031DCF28D028DC280530F4000030F500F6
:1001A8000530F2000030F3000230F0000030F100BA
:1001B8000800831203130618E228E328E728013011
:1001C800AE000030AF00061CEA28EB28FD282E03FD
:1001D8002F04031DF028F128FD280130B000300855
:1001E80085070130F4070318F50A0030F507AE015A
:1001F800AF0186180029012905290130AC0000301B
:10020800AD00861C0829092919292C032D04031D72
:100218000E290F29192901308502FF30F407031828
:10022800F50AFF30F507AC01AD0108007408203E5F
:100238008400831300088312031387000915033011
:10024800F7009730F600F60B2729F70B27292C29FA
:100258008312031309117208203E840083130008D7
:10026800870089140330F7009730F600F60B3A2917
:10027800F70B3A293F298312031389107008203E8F
:10028800840083130008870009140330F7009730AF
:10029800F600F60B4D29F70B4D295229831203134B
:1002A80009100800831603178901880183160313B0
:1002B80085010330860088018701890183120313B1
:1002C80086018501880187018901831603130F13AD
:1002D8008F160F120F14811281110115811401104C
:1002E800FA308312031381000B118B168B17080049
:1002F8000B1D7F29802990290130F8007808831286
:10030800031388070A128A111A210A128A110B117B
:10031800FA308312031381007B088A007A0884006C
:10032800790E8300FE0E7E0E09007E088A007F0883
:1003380082000A128A1199210A128A118000840AFD
:1003480004087D0603190034FF0A0319FE0A9D29D3
:100358003F3406345B344F3466346D347D340734AF
:040368007F346F343B
:04400E00D420FF3F7C
:00000001FF
